{
  "contractName": "ToDoList",
  "abi": [
    {
      "constant": true,
      "inputs": [],
      "name": "ctr",
      "outputs": [
        {
          "name": "",
          "type": "uint256"
        }
      ],
      "payable": false,
      "stateMutability": "view",
      "type": "function"
    },
    {
      "constant": true,
      "inputs": [
        {
          "name": "",
          "type": "uint256"
        }
      ],
      "name": "toDoList",
      "outputs": [
        {
          "name": "id",
          "type": "uint256"
        },
        {
          "name": "title",
          "type": "string"
        },
        {
          "name": "completed",
          "type": "bool"
        },
        {
          "name": "deleted",
          "type": "bool"
        }
      ],
      "payable": false,
      "stateMutability": "view",
      "type": "function"
    },
    {
      "anonymous": false,
      "inputs": [
        {
          "indexed": false,
          "name": "ctr",
          "type": "uint256"
        }
      ],
      "name": "Add",
      "type": "event"
    },
    {
      "anonymous": false,
      "inputs": [
        {
          "indexed": false,
          "name": "ctr",
          "type": "uint256"
        }
      ],
      "name": "Update",
      "type": "event"
    },
    {
      "anonymous": false,
      "inputs": [
        {
          "indexed": false,
          "name": "ctr",
          "type": "uint256"
        }
      ],
      "name": "Delete",
      "type": "event"
    },
    {
      "constant": false,
      "inputs": [
        {
          "name": "_title",
          "type": "string"
        }
      ],
      "name": "addItem",
      "outputs": [
        {
          "name": "",
          "type": "bool"
        }
      ],
      "payable": false,
      "stateMutability": "nonpayable",
      "type": "function"
    },
    {
      "constant": false,
      "inputs": [
        {
          "name": "_ctr",
          "type": "uint256"
        },
        {
          "name": "_completed",
          "type": "bool"
        }
      ],
      "name": "updateItem",
      "outputs": [
        {
          "name": "",
          "type": "bool"
        }
      ],
      "payable": false,
      "stateMutability": "nonpayable",
      "type": "function"
    },
    {
      "constant": false,
      "inputs": [
        {
          "name": "_ctr",
          "type": "uint256"
        }
      ],
      "name": "deleteItem",
      "outputs": [
        {
          "name": "",
          "type": "bool"
        }
      ],
      "payable": false,
      "stateMutability": "nonpayable",
      "type": "function"
    }
  ],
  "bytecode": "0x608060405234801561001057600080fd5b50610641806100206000396000f3fe608060405234801561001057600080fd5b50600436106100575760003560e01c806327e9f2941461005c578063654fc8331461012f57806387e9e77f14610175578063c4f4862514610193578063c9bdbe4214610257575b600080fd5b6101156004803603602081101561007257600080fd5b810190808035906020019064010000000081111561008f57600080fd5b8201836020820111156100a157600080fd5b803590602001918460018302840111640100000000831117156100c357600080fd5b91908080601f016020809104026020016040519081016040528093929190818152602001838380828437600081840152601f19601f8201169050808301925050505050505091929192905050506102a9565b604051808215151515815260200191505060405180910390f35b61015b6004803603602081101561014557600080fd5b81019080803590602001909291905050506103a4565b604051808215151515815260200191505060405180910390f35b61017d610416565b6040518082815260200191505060405180910390f35b6101bf600480360360208110156101a957600080fd5b810190808035906020019092919050505061041c565b60405180858152602001806020018415151515815260200183151515158152602001828103825285818151815260200191508051906020019080838360005b838110156102195780820151818401526020810190506101fe565b50505050905090810190601f1680156102465780820380516001836020036101000a031916815260200191505b509550505050505060405180910390f35b61028f6004803603604081101561026d57600080fd5b81019080803590602001909291908035151590602001909291905050506104fe565b604051808215151515815260200191505060405180910390f35b6000600180600082825401925050819055506040518060800160405280600154815260200183815260200160001515815260200160001515815250600080600154815260200190815260200160002060008201518160000155602082015181600101908051906020019061031e929190610570565b5060408201518160020160006101000a81548160ff02191690831515021790555060608201518160020160016101000a81548160ff0219169083151502179055509050507f90f1f758f0e2b40929b1fd48df7ebe10afc272a362e1f0d63a90b8b4715d799f6001546040518082815260200191505060405180910390a160019050919050565b6000600160008084815260200190815260200160002060020160016101000a81548160ff0219169083151502179055507f7d815d575a49d6d9a069482c25b0fdb39914ccf1bba8aaea4cfe20322f8f68776001546040518082815260200191505060405180910390a160019050919050565b60015481565b6000602052806000526040600020600091509050806000015490806001018054600181600116156101000203166002900480601f0160208091040260200160405190810160405280929190818152602001828054600181600116156101000203166002900480156104ce5780601f106104a3576101008083540402835291602001916104ce565b820191906000526020600020905b8154815290600101906020018083116104b157829003601f168201915b5050505050908060020160009054906101000a900460ff16908060020160019054906101000a900460ff16905084565b60008160008085815260200190815260200160002060020160006101000a81548160ff0219169083151502179055507f164f7b2ab803097dab5e39f06d2e4f3c3ddc5d4171abbdcc3e76443b8359c7f56001546040518082815260200191505060405180910390a16001905092915050565b828054600181600116156101000203166002900490600052602060002090601f016020900481019282601f106105b157805160ff19168380011785556105df565b828001600101855582156105df579182015b828111156105de5782518255916020019190600101906105c3565b5b5090506105ec91906105f0565b5090565b61061291905b8082111561060e5760008160009055506001016105f6565b5090565b9056fea165627a7a72305820972e513116b0fcc9d60512cb7e280f8b25c00080b0b9f7c2ee4b09282e0672490029",
  "source": "pragma solidity ^0.5.0;\n\ncontract ToDoList {\n  struct ToDoItem {\n    uint id;\n    string title;\n    bool completed;\n    bool deleted;\n  }\n  mapping(uint => ToDoItem) public toDoList;\n  uint public ctr;\n\n  event Add (uint ctr);\n  function addItem(string memory _title) public returns(bool) {\n    ctr += 1;\n    toDoList[ctr] = ToDoItem(ctr, _title, false, false);\n    emit Add(ctr);\n    return true;\n  }\n\n  event Update (uint ctr);\n  function updateItem(uint _ctr, bool _completed) public returns(bool) {\n    toDoList[_ctr].completed = _completed;\n    emit Update(ctr);\n    return true;\n  }\n  \n  event Delete (uint ctr);\n  function deleteItem(uint _ctr) public returns(bool) {\n    toDoList[_ctr].deleted = true;\n    emit Delete(ctr);\n    return true;\n  }\n\n}\n",
  "sourcePath": "C:/Users/Param/source/repos/blockchain/to-do-list/src/contracts/ToDoList.sol",
  "compiler": {
    "name": "solc",
    "version": "0.5.8+commit.23d335f2.Emscripten.clang"
  },
  "schemaVersion": "3.0.11",
  "updatedAt": "2019-09-18T13:50:22.952Z",
  "devdoc": {
    "methods": {}
  },
  "userdoc": {
    "methods": {}
  }
}